:020000020000FC
:040000000C946100FB
:040054000C945700B1
:1000600000E00093900002E002B9002708E10AB91D
:10007000002706E00093950009E109B908955D9B0A
:10008000FECF2CB908955F9BFECF2CB108952F931E
:1000900022952F7004D02F912F7001D008952A300F
:1000A00018F4205DECDF0895295AE9DF089564B162
:1000B00075B175BB272FEBDF282FE9DF2DE0E7DFD8
:1000C00018950FEF0DBF00E10EBF0FEF07BB0FEF4D
:1000D00004BB78940EE806B903E007B9369AC0DF8E
:1000E00000C0369A04E6302E01E00F933F9200E301
:1000F000302E06E03A94F1F73A940A95D9F73F90FA
:0C0100000F913A9491F70A9581F7EBCF2C
:00000001FF
