:020000020000FC
:100000000C9402000FEF0DBF00E10EBF88D00FEF80
:1000100007BB00E004BB50E07727E0E0F4E011C04C
:1000200037EF31D03FEE2FD03BED2DD035E62BD042
:1000300036EA29D03BED27D037EF25D03FEE23D04D
:1000400049C030E020D034E21ED034E21CD030E091
:100050001AD032E418D03CE316D030E014D030E0AF
:1000600012D038C030E00FD034E20DD034E20BD0E3
:1000700030E009D03CE307D032E405D032E403D0CD
:100080003CE301D027C048E001C0189537FF17C0F6
:10009000882309F000C0330F27E0219327E0219344
:1000A00027E021934A95A9F0F1CF330F20E0219367
:1000B00020E0219320E021934A9559F0E7CF330FB8
:1000C00020E021932FE0219320E021934A9509F02D
:1000D000DDCF1895E0E0F4E000E4002E21913191AD
:1000E0004191F8941FD078940A94C1F74CD000ED58
:1000F000302E08E00F933F9200E3302E06E03A9452
:10010000F1F73A940A95D9F73F900F913A9491F705
:100110000A9581F785DFF89405D07894FFCF02E047
:1001200001BB089508E027FD06C03324919A32BA36
:100130000000000004C0919A000000009198220F76
:100140000A9589F708E037FD06C03324919A32BA40
:100150000000000004C0919A000000009198330F45
:100160000A9589F708E047FD06C03324919A32BA10
:100170000000000004C0919A000000009198440F14
:100180000A9589F70895919801E4302E01E03A9498
:0A019000F1F73A940A95D9F70895A3
:00000001FF
