:020000020000FC
:040000000C9430002C
:0200280043C0D3
:0200240059C0C1
:100060000FEF0DBF00E10EBF0E948D0000EC07BF37
:100070000BE005BD08E703BDF2E0E0E0EE0F3096CF
:1000800008EC01930FEF07BB0FEF04BB00E001BBCF
:100090000FEF08BB789420D00BD01ED009D008D029
:1000A00007D006D005D004D003D002D001D0F3CFC2
:1000B0001FB6EF93FF931091020217FF01C016E3E2
:1000C00000E807BF16FF0FEF08BB1F5F1093020287
:1000D000FF91EF911FBE18951FB6EF93FF931091FC
:1000E0000302E12FF2E0208023BC113020F4103015
:1000F00010F0139501C010E010930302109102025A
:1001000000E008BB183311F400E007BF106410933F
:100110000202FF91EF911FBE1895E0E0F2E022E0AD
:1001200021F000EC01932A95E1F700E8019300E04B
:0401300000830895AB
:00000001FF
