:020000020000FC
:100000000C9443020C94AA010C94AC010C94AE0124
:040054000C943000D8
:1000600064B175B11895FF91EF91EE0FFF1FAF933B
:10007000BF93C8953196002021F04AF0002D17D08B
:10008000F8CF3196F695E795BF91AF91099400FAB4
:10009000002DC895A02DA03610F0B2E001C0BB27FE
:1000A0003196043879F0053881F015C0E2CF2F93EE
:1000B000FF93EF93E42DF52D202F0995EF91FF91FC
:1000C0002F9108950C91F3DFD4CF0D91002309F403
:1000D000D0CFEDDFFACF5F934F933F932F939F9352
:1000E0008F937F936F932D913D914D915D9106FD7F
:1000F00006C005FD0FC004FD10C003FD19C06AE075
:10010000702F76957770729580E0902F929593700E
:1001100093951AC062E094E003C060E194E000C0EF
:10012000702F7695777009F478E0729580E00CC0B6
:100130006AE0C895802D3196C895702D3196902F24
:1001400095959370939500C0943081F0933051F061
:10015000923021F0332716F427FD3FEF442716F4A1
:1001600037FD4FEF552716F447FD5FEF09D06F912C
:100170007F918F919F912F913F914F915F9179CF77
:10018000CF92BF92AF929F928F92BB18AA249924CC
:10019000882486F4E89455236AF46894772309F058
:1001A000705150954095309520950FEF201B300BE6
:1001B000400B500B882351F055954795379527955F
:1001C000B794A794979487948A95B1F77F93729583
:1001D0007F700EE20F9345D00C2D30D00F93002787
:1001E000201730074007500729F07723A1F37A95AD
:1001F00091F707C0772329F07A9519F000E257DFCD
:10020000F9CF16F40DE253DF0F910E3211F04FDFEC
:10021000FBCF7F917F70772359F049DF282D392D4F
:100220004A2D5B2D11D00C2D09D041DF7A95D1F7E5
:100230008F909F90AF90BF90CF9008950A3010F4A8
:10024000005D0895095A0895CC2400E2889420FDA9
:10025000C60EC79457954795379527950A95B1F7D8
:100260000895CC2400E2221F331F441F551FCC1CCD
:10027000C61A08F4C60E0A95B1F7221F331F441F91
:10028000551F5095409530952095089500E00093B6
:10029000900002E002B9002708E10AB9002706E051
:1002A0000093950009E109B908955D9BFECF2CB933
:1002B00008955F9BFECF2CB108953090008037FCED
:1002C000FCCF03D000930080089500D00000089573
:1002D0002D3089F12A30C9F10091008007FDFCCF53
:1002E000F4DF209300C0089501E0E7CF02E0E5CFFE
:1002F00000E1E3CF04E1E1CF08E1DFCF0CE1DDCFA6
:100300000DE0DBCF0CE0D9CF0EE0D7CF0CE0D5CF9E
:1003100005B7006C05BF01E0D0DF06E0CEDF0CE0E2
:10032000CCDF08E3CADF089505B7006C05BF089568
:10033000022F0068C2CF0091008007FDFCCF00743F
:100340000068C3DF0093008008952F9320E4F0DF5E
:100350002F910895839418958A9418956160189543
:1003600007E009BF0FE300936A000895002424000A
:10037000423C0000002424003C42423C00552255EF
:10038000001C22000000552200003800ECE6F3E0DB
:1003900009C0E4E7F3E006C0ECE7F3E003C0E4E8FB
:1003A000F3E000C0C0E0D4E009E00A95C1F0359068
:1003B00038E037FE0AC02FE029932FE0299320E090
:1003C0002993330C3A9589F3F4CF20E0299320E068
:1003D000299320E02993330C3A9539F3EACFC0E012
:1003E000D4E000E4002E299139914991F89405D088
:1003F00078940A94C1F732D0089508E027FD06C02A
:100400003324199A33B80000000004C0199A000080
:1004100000001998220F0A9589F708E037FD06C0F9
:100420003324199A33B80000000004C0199A000060
:1004300000001998330F0A9589F708E047FD06C0B8
:100440003324199A33B80000000004C0199A000040
:1004500000001998440F0A9589F70895199801E446
:10046000302E01E03A94F1F73A940A95D9F70895BD
:100470001FEF18BB189518B31E7F18BB189518B33B
:100480001D7F18BB18950FEF0DBF00E10EBF0FEFDA
:1004900004BB02E002B9FADE3BDF62DF0EE806B918
:1004A00003E007B90FEF07BB01E00EBD0CE107BF8A
:1004B000789470E06627789400C071DF07E1302EF1
:1004C00000E73BBC0ABD07E1302E00E739BC08BDA0
:1004D00008E6402E01E0502EC6DD0D0D5370656517
:1004E000643DC00820202020000060FD01C0F0CF46
:1004F0006F7F4CDF369A04E1302E01E00F933F927C
:1005000000E3302E06E03A94F1F73A940A95D9F7D1
:100510003F900F913A9491F70A9581F705E5402EA7
:1005200001E0502EA0DD0D0D44697374616E6365AA
:100530003DD0162020202000D9DE08E6402E01E024
:10054000502E91DD0D0D44697374616E63653DD06D
:10055000162020202000262F372F369527953695F8
:100560002795213E38F50DE1302E00EB3BBC0ABD4E
:100570000DE1302E00EB39BC08BD05E5402E01E051
:10058000502E71DD0D0D53706565643DC00820204F
:100590002020000008E6402E01E0502E64DD0A0D08
:1005A0000D53706565643DC008202020200060FD6B
:1005B00084CFA0CFEEDE02E1302E00E73BBC0ABDC7
:1005C0000CE1302E00E739BC08BD00ED302E08E00C
:1005D0000F933F9200E3302E06E03A94F1F73A94FD
:1005E0000A95D9F73F900F913A9491F70A9581F7C0
:1005F0000CE1302E00E73BBC0ABD0CE1302E00E7D9
:1006000039BC08BD0027369A262F372F36952795F7
:1006100036952795213EA8F508EC302E01E00F9382
:100620003F9200E3302E06E03A94F1F73A940A95AF
:10063000D9F73F900F913A9491F70A9581F7039576
:100640000A3009F0E0CF0CE1302E00E73BBC0ABDD8
:1006500002E1302E00E739BC08BD00ED302E08E085
:100660000F933F9200E3302E06E03A94F1F73A946C
:100670000A95D9F73F900F913A9491F70A9581F72F
:1006800037CF8ADE07E1302E00E73BBC0ABD07E129
:08069000302E00E739BC08BD63
:00000001FF
