:020000020000FC
:040000000C94380024
:1000600000242400423C0000002424003C42423C86
:100070000FEF0DBF00E10EBF5BD000C028D000ED38
:10008000302E08E00F933F9200E3302E06E03A94C2
:10009000F1F73A940A95D9F73F900F913A9491F776
:1000A0000A9581F717D000ED302E08E00F933F92AC
:1000B00000E3302E06E03A94F1F73A940A95D9F726
:1000C0003F900F913A9491F70A9581F7D7CFE0E6E8
:1000D000F0E003C0E8E6F0E000C0C0E0D4E009E0F2
:1000E0000A95C1F0359038E037FE0AC02FE0299319
:1000F0002FE0299320E02993330C3A9589F3F4CF2C
:1001000020E0299320E0299320E02993330C3A95AD
:1001100039F3EACFC0E0D4E000E4002E2991399110
:100120004991F89408D078940A94C1F735D008958D
:1001300002E001BB089508E027FD06C03324919A30
:1001400032BA0000000004C0919A000000009198AB
:10015000220F0A9589F708E037FD06C03324919AEB
:1001600032BA0000000004C0919A0000000091988B
:10017000330F0A9589F708E047FD06C03324919AAA
:1001800032BA0000000004C0919A0000000091986B
:10019000440F0A9589F70895919801E4302E01E003
:0C01A0003A94F1F73A940A95D9F70895C3
:00000001FF
